:020000040800F2
:100000000857012095180108ED170108EF1701089E
:10001000F1170108F3170108F517010800000000A7
:10002000000000000000000000000000FDF00008DB
:10003000F717010800000000A5F000085D77000830
:100040007D1901088119010885190108891901081C
:100050008D190108911901089519010899190108CC
:100060009D190108A1190108A5190108A91901087C
:10007000AD190108B1190108B5190108B91901082C
:10008000BD190108C1190108C5190108C9190108DC
:10009000CD190108D1190108D5190108D91901088C
:1000A000DD190108F9170108E1190108E51901082E
:1000B000E9190108ED190108F1190108F5190108FC
:1000C000F9190108FD190108011A0108051A0108AA
:1000D000091A01080D1A0108111A0108151A010858
:1000E000191A01081D1A010800000000211A010850
:1000F000251A0108291A01082D1A0108311A0108C8
:10010000351A0108391A01083D1A0108411A010877
:10011000451A0108491A01084D1A0108511A010827
:10012000551A0108591A01085D1A0108611A0108D7
:10013000651A0108FF170108691A01086D1A0108FC
:1001400000000000000000000000000000000000AF
:10015000711A0108751A0108791A01087D1A010837
:10016000811A0108851A0108891A01088D1A0108E7
:10017000911A0108951A0108991A01089D1A010897
:10018000A11A0108A51A0108A91A0108AD1A010847
:10019000B11A0108B51A0108B91A0108BD1A0108F7
:1001A000C11A0108C51A0108C91A01080000000097
:1001B000CD1A0108D11A0108D51A0108D91A010867
:1001C000DD1A0108E11A010800000000000000002B
:1001D0000000000000000000E51A01080000000017
:1001E000000000000000000000000000000000000F
:1001F0000000000000000000E91A0108ED1A0108E3
:10020000F11A0108F51A010800000000F91A0108A6
:10021000FD1A0108011B0108051B0108091B010843
:100220000D1B010800000000111B01080000000068
:10023000151B0108191B0108000000001D1B010807
:10024000211B0108251B0108291B01082D1B010882
:10025000311B0108351B0108391B01083D1B010832
:10026000411B0108451B0108491B01084D1B0108E2
:10027000511B0108551B0108591B01080000000013
:100280005D1B0108611B0108651B0108691B010852
:10029000000000006D1B0108711B0108751B01089F
:1002A000791B01087D1B0108811B0108851B0108C2
:1002B000891B01088D1B0108911B0108951B010872
:1002C000991B01089D1B0108A11B01082DE9F84F8E
:1002D000050084B0DFF8FC9A06D109F128038322D7
:1002E0000FF6D40100F08DFDDFF8EC7A6A683A620F
:1002F0006889142840DBDFF8E48AD8F80010D8F8C1
:10030000140001F00BFA002840F04C8498F8141007
:1003100001F0F001E02900F04584386A00F06EFD3C
:10032000000B81001429A4BF2889884224DBA1F195
:1003300014000023B8827B626A898A4204DBF88257
:10034000284601F0C8FB36E0286830B909F12803D7
:10035000C2220FF67C0100F054FD1421284601F062
:10036000BAFB28466989BC8AF982641AA4B201F0F2
:10037000B2FB28684289A242C0F2148441687962C3
:10038000214601F0A8FB2A896889141B2C8130B111
:1003900009F12803DF220FF6480100F032FD2A6838
:1003A00028891189884206D009F12803E0220FF636
:1003B0003C0100F026FD386A008801F019FE396A18
:1003C0000880488801F014FE396A488000F012FD68
:1003D0003A6A5060396AB862886801F00FFE396A7B
:1003E0008860F862386AC08901F002FE396AC88103
:1003F00001F0A4F800F03F0010F0030F38702989D5
:10040000B98305D0481CB88380B28842C0F0CA8343
:10041000DFF8CCA94FF0000BDAF8004001E0A3466A
:10042000E468002C00F08380207D30B909F12803B6
:10043000FB2209F1800100F0E4FC207D0A2806D1AE
:1004400009F12803FC2209F1A80100F0DAFC207D63
:10045000012806D109F12803FD2209F1D40100F099
:10046000D0FC207A10B100F0FDFBD8D1386A218B86
:100470000288914202BFE38A40888342CFD16168FB
:10048000D8F81020914202BF2068D8F81410884292
:10049000C5D12646F268B24207D109F1280340F2DD
:1004A0000D1209F1FC0100F0ACFCBBF1000F07D00C
:1004B000F068CBF80C00DAF80010F160CAF80060C0
:1004C000F068B04207D109F1280340F2151209F58E
:1004D000947100F096FC00213A7879602889396A95
:1004E00000243961B88100201107BD6038637C7039
:1004F000788303D5687B40F00100687306F14405FA
:10050000686B00280AD0304602F04EFA10F10D0F49
:1005100006D0686B00281CBFB98B002900F0F6805C
:10052000708D002802D1304603F086FA1AE3DFF816
:10053000B4180C6800E0E468002C4AD0207D0A283A
:1005400007D009F1280340F21F1209F5AA7100F043
:1005500058FC207A10B100F085FBECD1396A208B71
:100560000B88984202BF4E88E18AB142E3D16068AD
:10057000D8F81020904202BF2168D8F814008142B8
:10058000D9D13A782046510770D49407B98B13D546
:10059000BC6A426AB4EB020E14D4028DAEEB0202C6
:1005A000002A0FDC02936218019608F11003F96A21
:1005B000009308F11403F3E2D30703D5DFF82828EA
:1005C00014680462002951D0418B41F0020141833B
:1005D00099E0DFF81838002218683E6A01E0024608
:1005E000C068002800F0C882017A39B1D8F8044008
:1005F000491EC9B294F83040A142F0D1B6F802E0E9
:10060000C18A7145EBD10168D8F81440A14218BFE6
:10061000002818BF0029E2D1044622B1E068D0606A
:100620001968E1601C60387842071FD4C1060ED5F6
:100630003088B96A08F11002CDF804E00290B88B56
:10064000009208F114030A18F96A2046A8E280070C
:100650000CD5607D02F06AFA060008D1A369002B70
:1006600004D020694FF0FF32002198479AE2D8F871
:1006700014003060D8F810107160E28A06F160084A
:10068000F282386A0322018831833275B86A401CCD
:100690007062F062304602F063FBB06530657064F2
:1006A000F065B86A401E706521693161C8F81C4068
:1006B000607A00F00C007072217A3172DAF8000072
:1006C000F060CAF8006003F06BFB0121DFF820271F
:1006D0001170304600F04CFF386AC089A8F800005D
:1006E000A8F80200301D03F027FC00F0B4FA708671
:1006F0001221304602F0ACFD20B10021304601F05D
:1007000025FE4FE2304602F031FE4BE27E63387840
:10071000410725D5307D022804D1F96AE868814275
:1007200016D10CE0716ABA6A8A4212D138B909F15D
:1007300028034FF44E720FF2D44100F062FB7A7836
:100740004FF6FE7042F008027A70718B014071839F
:1007500099E1511AFCD4308D091A0029F8DC78E1AE
:10076000810704D5307D022818BF0328F7D1B07E59
:10077000C10603D4DFF870361A68326206F19A00B7
:10078000DFF860B644700470304600F0F1FEB88BBC
:10079000B96A3B783A6A41F21C140818039096F83B
:1007A00014E003F01000AEF1020EBEF1070F19D8ED
:1007B000DFE81EF0F10094008E0048003E008E003D
:1007C0001900080000F04CFA3878C3060AD5FA6A16
:1007D000E9688A4204BFA86A002803D1797841F009
:1007E000100179704FE100F03BFA3978C806F9D56D
:1007F000FA6AE9688A4204BFA86A0028F2D1304642
:1008000002F01EFADAF80000B04204D1C068CAF85B
:10081000000006E0084620B1C168B142FAD1F26892
:10082000C26000240121F460DFF8C405017035E0E6
:1008300000F016FA7A789106D4D5708B40F0020059
:10084000708313E000F00CFA7B783878F96A9A0626
:1008500000F0100032D558B3EB68994204BFA86A83
:10086000002825D1718B41F002017183304602F0DE
:10087000E7F9DAF80000B04204D1C068CAF8000015
:1008800006E0084620B1C168B142FAD1F168C16002
:1008900000220120F260DFF8581508700A23337532
:1008A000DBF80020F260CBF8006003F079FAEAE0B0
:1008B000708B082140F00200708355E00028F6D0CC
:1008C000EA68914204BFA86A002806D106214BE0DD
:1008D00000F0C6F97878820641D4D4E0002850D0E0
:1008E000F96A2868081A401E40D4EB68CB1A002B1E
:1008F0003CDC04203075A86B002816D0806938B91C
:1009000009F128034FF46A720FF2203100F079FAEE
:10091000A86B8369002B08D03069002231469847C4
:1009200020B110F10D0F00F01D81E3E000F098F907
:10093000788B08B1401E7883738E5900A1428CBF1A
:100940000A4622469800904238BF9B0003D3A1423A
:100950008CBF5B002346AB807878810605D5728B0F
:10096000072142F00202728331758CE0108808F191
:10097000100302905288009308F1140300F066F906
:1009800081E09A07FCD5706A491C81427BD13046D0
:1009900002F0E4FE77E003F01203122B01BFFB6AC2
:1009A0005B1ED5F800C0634558D1481C491E7062D3
:1009B000F062F86A2860D089A883E883042029615E
:1009C0003075301D03F0B8FA00F045F9420070862A
:1009D000A2428CBF134623468100994238BF800053
:1009E00003D3A2428CBF40002046A880688C38B94F
:1009F00009F128034FF45B720FF6204100F001FA71
:100A0000688CEC6A411E698464B9AC6A3CB909F12E
:100A100028034FF45D720FF61C4100F0F2F92168D3
:100A2000A96201E02068E862204602F00AF8E86A5C
:100A300000280EBF4FF0FF31002186F842103186AA
:100A40006B6C33B1306900223146984710F10D0FBD
:100A500029D0708B40F00200708314E098B11088A8
:100A600008F1100108F11403029052880091F96A0C
:100A700000F0ECF896F84200062804DA002130462F
:100A8000318602F055FE787801070DD5EA6C1AB16F
:100A900030696FF00D0190473146504602F002F97F
:100AA000304601F0C5FA5DE07A8B4AB1EB6B2BB1B1
:100AB00030693146984710F10D0F53D000207883EC
:100AC000304600F0D7F800284CD1386B6FF00C0A94
:100AD00028B3696B39B109F128034FF4F3720FF6AB
:100AE000203100F08EF9B07E3A6BC10606D5104673
:100AF00001F022F8304601F0AFFC33E02C6C24B159
:100B0000306900233146A04704E00023314600202D
:100B100001F0C0FF504525D008B1396B6963787882
:100B2000810616D5686B20B1417B41F020014173ED
:100B30000FE0318D41F2D06081421CBF491C3185EC
:100B40002C6C34B13069002300223146A047504557
:100B500008D000207863304600F08CF810B9304699
:100B600002F004FC002078633863B86800B300F03A
:100B7000E3FF0020B8601BE0B08901F039FA4107BB
:100B800010D4396A08F1100208F1140308880290A1
:100B90004988B86A00920191B98B4218F96A00201D
:100BA00002F004FF284605B0BDE8F04F00F0C4BFD6
:100BB00005B0BDE8F08F00007463705F696E7075FA
:100BC000743A20696E76616C6964207062756600A3
:100BD000702D3E6E65787420213D204E554C4C00A2
:100BE000702D3E6C656E203D3D203000702D3E74B2
:100BF0006F745F6C656E203D3D20702D3E6E657894
:100C0000742D3E746F745F6C656E00007463705F6A
:100C1000696E7075743A207063622D3E73746174EE
:100C20006520213D20434C4F534544007063622DA5
:100C30003E6C697374656E65722D3E6163636570A9
:100C40007420213D204E554C4C0000000192039A27
:100C5000304602F0ABBE0146708E321D02F091B8F4
:100C60003046D1E0D8F80410401EC0B291F83020D0
:100C70009042704738B5040008D1564840F25A22D5
:100C800000F1280300F5C27103F0CEFA524D6B78E3
:100C9000DA0612D5A17EC80606D4D4F890201AB17F
:100CA00020696FF00E01904721464D4801F0FAFF90
:100CB000204601F0BDF9012032BD002032BD70B5E3
:100CC00005000C4608D1434840F21F4200F12803BA
:100CD00000F5D67103F0A8FAEB68988901F088F95D
:100CE000C00713D52046002401F0A2FE23E000F047
:100CF00085F8C00706D5012001F07AF9EA689189E4
:100D0000084390812046246801F09BFE9CB1E06876
:100D1000314946682A89896A23898A18961BF61AF6
:100D2000E5D54368D21A002A05DD42686868511A81
:100D3000298100F0F6FB2C6070BD2DE9F04780465C
:100D40000C461D46DFF88C90234F002C3FD0E16805
:100D500000F050F80646E06800F050F810F003028A
:100D600018BF01222089F96A30181218521A012A74
:100D70002DDA26462468706800F03DFF8246B8F8F8
:100D80006600504507DA09F1280340F2574209F599
:100D9000EA7100F036F8B8F86600A0EB0A00A8F88F
:100DA00066007A8B318930468A187A8301F049FED1
:100DB000B8F866000028C8D0002CC6D13DB909F1AA
:100DC000280340F262420FF6800100F01AF8204634
:100DD000BDE8F08770020108D4510120645201205F
:100DE000A8000020AC0000209C000020A4000020EF
:100DF00098000020486801F001B93869808901F045
:100E0000F7B8484603F010BA2DE9F0470500DFF8BF
:100E1000E48707D108F1280340F27B420FF648012E
:100E200000F090FB2B7D042B07DA08F1280340F239
:100E30007C420FF6500100F085FBDFF8BC7705F12E
:100E4000440639784FF6FF79C80640F10781B38B25
:100E50007069D6F810A0D7F828C03C6AF96AC218A1
:100E6000BAEB0C0E08D402D1B0EB010E04D48842C8
:100E70000ED1E08983420BD2E089B5F86230044696
:100E80009C4238BF1C46F483B083C6F810C0716121
:100E9000346805F14203081B002828DCB88B0028C1
:100EA00001BFD6F814C0B08B604490421CD1B5F994
:100EB0003020002A18D48C4216D15978481CC4B26C
:100EC000A14238BF58705878042807DBB1886B8E70
:100ED0005B189AB28A4238BF4B46B380032802DBC4
:100EE000284602F076FC96E00020587093E0401E01
:100EF00000F18E80F068081A002800F389806A8B60
:100F0000540707D54FF6FB7002406A83F088002231
:100F1000B080F28400201870B5F93C40B5F93E204D
:100F2000B08802EBE4020024A5F8402032685C702F
:100F300031608A1A297D04292DDBF188F48C8842DE
:100F400016D2698B0B054CBF01230223698E9E4686
:100F50001FFA82FC1EFB01FE1FFA8EFEF44528BF1D
:100F600001FB03F2121891B2814212D3104611E034
:100F7000121991B2A1422CBF14464C46A1B2814233
:100F800008D3698E241A09188AB2824228BF0846FB
:100F900000D24846F484B36AF16AB0800FF200725E
:100FA0002846FFF7CAFEB16A0346F3620FF2F86201
:100FB0002846FFF7C2FEB062F06A00280CBF4FF06F
:100FC000FF300020288600202877B06A08B9002169
:100FD000B184328C798B8A1832846B8B1A051AD5BE
:100FE000F16A41B970B1C168FFF704FFB268101A25
:100FF000002810DC06E0C968FFF7FCFEB168081A9B
:10100000002808DC6A8B4FF2FF7002406A8302E01E
:10101000284602F011FD686B00B3AA6BF96A521AF8
:101020001CD5DFF8D835B5F93C101A68101A00B293
:10103000A0EBE100411804B2002C48BF4042A98750
:10104000B5F93E200904C9148018A0EBA200E88776
:1010500001FA80F00021A5F840006963B88BBA6AF4
:10106000002800F04E82297D072980F24A82696AB1
:10107000A1EB020ABAF1010343D4AAEB0000401C21
:1010800000283EDCBC683CB908F1280340F29452C9
:101090000FF21C6100F056FACA4507D308F1280385
:1010A00040F295520FF2186100F04CFAB8681FFA3E
:1010B0008AFA0189514507DA08F1280340F297526C
:1010C0000FF20C6100F03EFAB989B868A1EB0A0191
:1010D000B9810189A1EB0A0107E0AAEB0200002215
:1010E00021811FFA80FA6281246862895245F4DB0B
:1010F0005146204600F0EFFC3969686AB8624860E2
:1011000005E0521A03D5688B40F0020068836A6AD2
:10111000B96A8B1A00F1F081288D1B1A5B1C002B19
:1011200000F3EA818A4208F5FE7A40F02C81FFF74D
:1011300064FE10F0030018BF0120B9894018B8837D
:101140002A8D80B282422FD2FFF757FEC0070CD5FE
:1011500000F0F3F900F03E0000F04AFF3B694CF26A
:10116000FF019A890A4010439881288D3969B88116
:1011700000F0E4F9800702D5B9894944B981B989F9
:10118000B86800F026FCFFF738FE10F0030018BF27
:101190000120B989BB6A00F0C7F905D008F128031E
:1011A00040F2CC5200F0CDF9306B002864D000F052
:1011B000C4F9C00707D5306B00285DD001683163E2
:1011C00001F03FFCF7E7346B1BE0FFF717FEC007A9
:1011D00013D500F0B2F980070FD4012000F008FF0A
:1011E0003A6991890843908100F002FF10F00300F2
:1011F00018BF0120B9894018B8832046246801F03F
:1012000020FC002C37D0E068D0F804C0BA8BB96A53
:1012100023898A18A2EB0C0CBCEB0303D5D54368D9
:10122000D21A002A27DD42683869511AB981FFF7BE
:10123000E5FD800703D5B9898944A7F80C90B989E1
:10124000B86800F0C6FBFFF7D8FD10F0030118BF27
:101250000121B8890918B983E3685868BA6A12FA93
:1012600081F1814207D008F1280340F2FD5208F5D0
:101270000D7100F067F93463B88BB96A09186962B7
:101280002A8D824207D208F1280340F207620FF24A
:10129000504100F057F9298DB88B091A2846298545
:1012A00001F0DCF8B968088910B139630021B96030
:1012B000FFF7A3FDC00754D5797841F0200179707C
:1012C0004FE0396338E04868B862E068FFF796FDA0
:1012D00010F0030018BF012021896A6A51184018D4
:1012E0006862E068FFF78AFD10F0030018BF012074
:1012F0002289298D8018814207D208F1280340F203
:101300002C6208F51C7100F01DF9E068FFF776FD0E
:1013100010F0030018BF01202A8D2189521A101ADB
:101320002885284601F09AF86168088930B1386B41
:101330000028C6D000F081FC00206060E16800F069
:10134000FDF8C00708D5797841F0200179702A7D31
:10135000042A04BF0720287521682046316301F064
:1013600070FB346B24B1E16848686A6A9042AAD085
:10137000688BC10752BF40F00100022262F30100F6
:101380006883BDE8F087D6F83090B9F1000F03D13B
:1013900000F0C4F83063AFE00024D9F80C205068A6
:1013A000814204D0C4B95068081A1FD50DE0B9F8BD
:1013B0000800B9898842EED200F0B0F80028EAD0DF
:1013C000002C14BF2060306304E000F0A7F8002870
:1013D00017D0306349462CE0E3685868081A401E6D
:1013E00004D45068081A401C00280BDDD9F800000E
:1013F0004C4618B95368CB1A002B1DDC5FEA000974
:10140000CBD179E0381D264601F027FB040073D0CC
:10141000F06842683389B96AD218521A002A05DD89
:101420004268891A3181706800F07BF8346049465F
:101430002046FFF744FC5FE0908900F0D9FDC1072A
:101440005AD400F06BF80028C9F8000054D0D9F83D
:101450000C004268B9F80830B96AD218521A002A4A
:1014600007DD4268D9F80400891AA9F8081000F0CD
:1014700058F8B98BBA6A686A5218298D121A521A2A
:10148000002A39DDD9F80020D068FFF7B7FCC20781
:1014900011D5D9F80010C868FFF7B0FC00F03E0085
:1014A00000F0A6FDD9F800204CF2FF01D268938924
:1014B0000B4018439081298D6A6AB86A8918091A05
:1014C000D9F800000181406800F02BF8D9F800102D
:1014D000C868FFF793FC10F0030018BF0120D9F88B
:1014E0000020BB6A118900F01FF805D008F128031D
:1014F00040F2F96200F025F82846BDE8F04702F016
:101500009BBA686A121A05D4298D521A521C002AF5
:101510007FF737AF688B40F0020031E7381D01F0EC
:101520009CBA89B200F055BA4018B883298D6A6A0E
:1015300013FA80F05118884270473969888900F0A1
:1015400057BD5146404602F06FBE10B52A49088B80
:101550000246401C0883486A10B1CC8AA24203DAD2
:10156000086A1044007D10BD121BD2B2805C10BD11
:10157000F8B5050007D11F4840F27D7200F128033D
:101580005FA102F051FE1C4EB48A5CB30020308390
:101590000FE0FFF7DAFF0746FFF7D7FF40EA072023
:1015A00040F2B551884201DA010001D140F2B45055
:1015B0006886308BA04215D2FFF7C7FF90B1022892
:1015C00008D0F6D3FFF7C1FF02280BDB318B4018A0
:1015D000801EDCE7FFF7B9FF042803D1308B801CA5
:1015E0008442D6DAF1BD0449487840F010004870D2
:1015F0007047000070020108D45101209C000020B7
:101600007063622D3E726566757365645F646174B4
:1016100061203D3D204E554C4C0000007063622D12
:101620003E736E645F71756575656C656E203E20F6
:10163000300000006E6F207365676D656E742074F6
:101640006F206672656500007463705F7265636524
:101650006976653A2076616C696420717565756597
:10166000206C656E677468007463705F7265636593
:101670006976653A20696E76616C69642070636290
:10168000000000007463705F726563656976653A97
:101690002077726F6E6720737461746500000000BC
:1016A000756E61636B656400756E73656E740000C2
:1016B000696E7365672E7020213D204E554C4C009D
:1016C000696E73616E65206F6666736574210000D4
:1016D0007062756620746F6F2073686F727421007A
:1016E0007463705F726563656976653A20746370D0
:1016F0006C656E203E207263765F776E640A000030
:101700007463705F70617273656F70743A20696E94
:1017100076616C696420706362000000C24318BF88
:10172000002810D091F82D309A070ED54A689042C3
:101730000BD08B6803EA00011A40914202BFDB43E1
:101740001840984201D1012070470020704730B501
:10175000016884684218416802EB5103C90703D548
:101760004C4401E0491C08D19A4218BF12F9011BF0
:1017700001D10C3030BD12F8015B002904F8015B87
:10178000F0D4491EF7D5EFE780B502F0CEFD002278
:10179000DFF8D8160A7002F0D1FDDFF8D406006831
:1017A00000E0C06830B1416F0029FAD0BDE80240C6
:1017B00001F04ABB01BD70B5BDF91060059C002564
:1017C0000560028101224160438106734473827384
:1017D000C57370BD2DE9FE4F174606468946DFF8F2
:1017E0009486012F18BF412F06D0B7F5C17F0AD0CC
:1017F000B7F5207F70D0A3E0002000F0AAF80446DF
:101800002046BDE8FE8F0024A2460C2002F0F2FD27
:1018100005003DD0F31C4FF6FC7240F2EC51134032
:10182000C91A1FFA89FB89B28B4588BF8B460020F5
:1018300000970190A81900F11001C91C89085B46A6
:101840001FFA89F289002846FFF7B5FF287910F0C2
:10185000030F07D008F1580340F2011208F12801E4
:1018600000F0C6F9F61CB608B6007642DFF80806A6
:10187000864207D108F1580340F2031208F1B00183
:1018800000F0B6F9002C0CBF2C46CAF800501AE044
:1018900002F04BFDDFF8D45501212E78297002F0BB
:1018A0004DFD5EB90021DFF8D40502F0B9FE28B184
:1018B00002F03BFD0021297002F040FD1CB32046E0
:1018C00000F03AF91FE0A9EB0B0900261FFA89F096
:1018D0000028AA4699D193E7F21C09F10301920866
:1018E0008908920002EB810202F1100092B2B2EB81
:1018F000810F24BF82B2B2EB810F04D380B203F018
:101900009BF8040001D100207BE7002000970190A4
:10191000A01900F11001C91C89084B464A468900EC
:101920002046FFF748FF207910F0030F07D008F199
:10193000580340F2231208F1E40100F059F95FE77F
:1019400008F1580340F227120FF2345100F050F919
:10195000D9E7FEB5164605460F46412E18BF012EA3
:1019600009D0DFF810054FF4A57200F158030FF20B
:101970002C5102F059FC0B2002F03CFD040001D177
:101980000020FEBD0020009601903B463A462946C5
:101990002046FFF710FF2046FEBD3EB5C01C1C468A
:1019A0008008079B01EB8005AB4201D200203EBDC1
:1019B000069B002B14BF03EB800000200223009243
:1019C00001930B460A4601462046FFF7F4FE2046E7
:1019D0003EBD2DE9F04104000E46DFF8985408D1D1
:1019E00005F158034FF4CC720FF2C441284602F0BF
:1019F0001BFC2789BE423AD2BF1BBFB20FF2C848B8
:101A00000EE02089761AB6B2C01B208124683CB94A
:101A100005F1580340F2AF124146284602F004FC9B
:101A20006189B142EDDB217B11F00F0F17D1628983
:101A3000964214D0617B880711D461682046091B47
:101A4000711889B202F05EFF040008D105F1580355
:101A500040F2BD120FF28841284602F0E5FB668194
:101A60002681206808B100F067F800202060BDE8FA
:101A7000F081F8B558B9DFF8FC0340F2DF1200F14D
:101A800058030FF2784102F0CFFB0120F2BDB1F50F
:101A9000803FFAD2D9B103890C46A5B21B199EB278
:101AA000AE42F2D3057B2F0607D5426849420A446D
:101AB00000F110018A4205D2E7E7002AE5D042682A
:101AC00049420A44418942600381641844810020EC
:101AD000F2BD0022CDE710B5DFF8984330B904F12C
:101AE000580340F24B220FF214410DE0B1F5803F54
:101AF0000DD2B1B143898AB293420ADA04F1580394
:101B000040F255220FF20041204602F08DFB0120E9
:101B100010BD9B1A446843810389214441609A1A8D
:101B20000281002010BD0B0058BFFFF7A2BF5B422F
:101B30001946D0E70122F6E72DE9F0470400DFF867
:101B4000348309D108F158034FF437720FF2AC31E6
:101B500000F04EF8002049E000250FF2E4390FF2C2
:101B6000C83A02F0E2FB0646A07B30B908F1580300
:101B700040F2F122514600F03BF8A07B471E304670
:101B8000A773FFB202F0DAFB7FBB627B207B266883
:101B9000910700F00F000DD5206938B908F15803FE
:101BA00040F2FF2208F5887100F022F821692046F2
:101BB000884717E0022802D121460C2003E00128C3
:101BC00004D121460B2002F053FC0BE018B920464B
:101BD00002F0D7FD06E008F1580340F20F32494603
:101BE00000F006F86D1C3400BBD1E8B2BDE8F08708
:101BF000404602F019BB0146002001E0401C096884
:101C00000029FBD180B2704710B5040014D002F057
:101C10008CFBA17B491CA17302F090FBA07B58B9FF
:101C2000DFF8500240F2423200F158030FF2243143
:101C3000BDE8104002F0F8BA10BD70B504000D46C2
:101C4000DFF8306218BF002D0FD106F1580306F5FA
:101C50009A71304640F25A32BDE8704002F0E4BA60
:101C600023892989CB182381044620680028F7D1CD
:101C700021896089814208D006F1580340F262321E
:101C800006F5B671304602F0CFFA206840B106F191
:101C9000580340F263320FF2D021304602F0C4FA0A
:101CA0002189288941182181256070BD10B50C4615
:101CB000FFF7C3FF2046BDE81040A5E72DE9F04738
:101CC0000546002600270C466FF00F09DFF8A481B7
:101CD000002D18BF002C03D028892189884206D204
:101CE00008F1580340F2CA3208F5E0714AE0608911
:101CF000A0EB070A6889801B504538BF824661689F
:101D000068685246394457443044564402F0BAFF9A
:101D10006A89B24207D208F1580340F2D9320FF271
:101D20005821FFF765FF6089B84207D208F15803D0
:101D300040F2DA320FF25821FFF75AFF60898742EA
:101D400024BF002724686889864202BF00262D68C8
:101D5000002D10D02CB1628921898A4201D12068DE
:101D6000A0B92DB16A8929898A4201D1286890B920
:101D7000002CBCD11AE0CCB108F158034FF47972B1
:101D80000FF22821FFF734FF484610E008F158030E
:101D900040F2EA3203E008F1580340F2EF3208F56E
:101DA000F871FFF725FF6FF0050000E00020BDE8A7
:101DB000F0872DE9F8430446002688461546B146CB
:101DC0002C4834B900F1580340F20A420FF2EC11EA
:101DD00008E0B8F1000F1CD100F1580340F20B42AB
:101DE00000F5077102F020FA002022E0C01A80B24C
:101DF000AFB28742C8BF074660689BB23A46B94453
:101E0000ED1BC118B0B24044BE1902F03BFF0023E5
:101E10002468A8B258B108E099B200296089E5D0D9
:101E20009AB28242E2D31B1A2468002CF4D11FFA22
:101E300089F0BDE8F283000038B515460A462989C5
:101E4000FFF7C8FC040001D1002032BD2946FFF78E
:101E500035FF40B1DFF81C0040F2245200F1580376
:101E60005EA102F0E1F9204632BD000003530120DB
:101E7000A80000200805010814FAFFFF89170008D0
:101E8000706275665F616C6C6F633A206572726F29
:101E90006E656F757320747970650000696E766188
:101EA0006C696420706275665F747970650000000B
:101EB000706275665F7265616C6C6F633A2070204A
:101EC000213D204E554C4C00706275665F72656115
:101ED0006C6C6F633A207120213D204E554C4C00B4
:101EE0006D656D5F7472696D2072657475726E6573
:101EF000642071203D3D204E554C4C007020213D0A
:101F0000204E554C4C000000696E6372656D656E25
:101F1000745F6D61676E6974756465203C3D207007
:101F20002D3E6C656E000000706275665F667265BE
:101F3000653A20702D3E726566203E20300000001C
:101F4000696E76616C696420706275662074797060
:101F5000650000007062756620726566206F7665A8
:101F600072666C6F77000000702D3E6E657874208D
:101F70003D3D204E554C4C006F66667365745F7432
:101F80006F203C3D20705F746F2D3E6C656E0000CD
:101F90006F66667365745F66726F6D203C3D20707E
:101FA0005F66726F6D2D3E6C656E0000705F746FC2
:101FB00020213D204E554C4C00000000706275669B
:101FC0005F636F70795F7061727469616C3A2069E8
:101FD0006E76616C69642062756600007062756679
:101FE0005F636F7079206661696C65640000000052
:101FF0000146000A40EA012080B27047014608020B
:1020000000F47F000A0A40EA016002F47F421043B4
:1020100040EA116070472E0080B502F03FFEC0F329
:102020000D00A0F58041DFF84C05018001BD0000E6
:1020300010B50446207D012807D1DFF83C05D422E5
:1020400000F1280304A102F0EFF821460120BDE8C9
:10205000104002F00DBA00007463705F667265652F
:102060003A204C495354454E0000000080B500F022
:1020700064FCDFF8B8180878401C0870C00703D566
:10208000BDE8014000F07ABA01BD00002DE9FE4331
:1020900004000D46DFF8E08440F0078008F12803D3
:1020A0004FF4AF7275A100F027F9002D217DDFF804
:1020B000806844D0042918BF072940D1A06F0028A8
:1020C00002BF238D41F2D062934238D0A07EC10678
:1020D00000F1078008F128034FF4B2726FA100F0FD
:1020E0000BF9218B201D23460291E28A00902046A5
:1020F0000192626A216D01F059FC204600F0A0FDBA
:102100003069A04203D1C068306106E0084620B1C2
:10211000C168A142FAD1E168C16000220120E260F9
:10212000DFF8801830700B68A34204D1FFF75BFA28
:102130000020BDE8FE832046FFF77AFFF8E719B1DB
:10214000022955D013D35BE0E08A0028F3D0B068B1
:10215000A04203D1C068B06006E0084620B1C16863
:10216000A142FAD1E168C1600020E060E3E794B9E0
:1021700008F1280340F211125CA100F0BDF8002123
:10218000087D012800F0078008F128034FF48972C8
:1021900049A100F0B1F801270FF2C83959F827001A
:1021A00005686CB908F12803FF2208F17C0100F0F2
:1021B000A3F805E0E96FA14204BF0020E867ED68DD
:1021C000002DF7D17F1C042FE8D3214606F10C0027
:1021D00000F068FD207D012805D108F12803DF22E9
:1021E0003BA100F089F82146022002F041F99FE767
:1021F000214606F1100000F055FD012030709AE7ED
:102200002046BDE8FE4300BF38B5050040F0098018
:10221000DFF864034FF4CE7200F1280333A102F01B
:1022200003F82B7D032B04D0042B0AD0072B13D0EB
:1022300019E0284600F0E2FF040007D105202875C8
:1022400005E0284600F0DAFF0400F7D06CB9284614
:1022500001F08CF8204632BD284600F0CFFF040084
:10226000F4D10920EBE7002032BD14F1010FF1D1C8
:10227000688B40F008006883F5E700007463705FC6
:10228000636C6F73655F73687574646F776E3A2003
:10229000696E76616C696420706362007063622DA0
:1022A0003E666C61677320262054465F5258434C4B
:1022B0004F534544000000007063622D3E7374610B
:1022C0007465203D3D204C495354454E00000000AC
:1022D0007463705F667265655F6C697374656E3A8E
:1022E00020214C495354454E000000007063622089
:1022F000213D204E554C4C00404601F095BF00005A
:1023000080B558B9DFF870024FF4F47200F1280379
:1023100008A101F089FF6FF00F0002BD027D012AC4
:1023200003D0418B41F0100141830121BDE80440FD
:10233000ACE600007463705F636C6F73653A20698C
:102340006E76616C69642070636200002DE9F84F5D
:10235000040084B08B46DFF820020AD10DF1140D81
:1023600000F1280340F23D2234A1BDE8F04F01F016
:102370005BBF237D012B07D100F1280340F24122EE
:1023800000F1A40101F050FF207DDFF8A4750A28B8
:1023900009D1214607F1140000F084FC204605B065
:1023A000BDE8F04F44E6216D002503910026D4F8E6
:1023B0002490D4F890A0D4F81080E18A78B9B9B10B
:1023C000B868A04203D1C068B86006E0084620B1F2
:1023D000C168A142FAD1E168C160E56008E00E463B
:1023E000214607F110005D4600F05CFC01203870CA
:1023F000206F08B100F01CFBE06E08B100F018FB84
:10240000606F08B100F014FB55B1211D208B0091C5
:1024100003990290234601964A46204601F0C6FAE7
:102420002046FFF705FE5FEA0A0003D06FF00C01BB
:102430004046D04705B0BDE8F08F00007463705F80
:102440006162616E646F6E3A20696E76616C696478
:102450002070636200000000012177E770B504007E
:10246000454D08D105F1280340F2A63205F5B471B7
:10247000284601F0D9FE218D666A628E40F66933E6
:1024800070189A42A8BF40F66832E36AC01A821AEE
:1024900001D4618570BDF01A0028C8BF00260BDC8E
:1024A0009E1BB6F5803F07D305F1280340F2B632F4
:1024B00003A1284601F0B8FE6685002070BD00002B
:1024C0006E65775F7263765F616E6E5F776E6420B4
:1024D0003C3D2030786666666600000038B5040032
:1024E0000D46DFF84C0908D10DF1040D00F1280369
:1024F00040F2CF3215A100F0D0BB237D012B07D1D4
:1025000000F1280340F2D33200F5C67101F08CFED1
:10251000218D41F2D1606D18ADB2854201DA8D4254
:1025200001DA41F2D06525852046FFF797FF40F29A
:10253000B451884208D3608B40F00200608320468B
:10254000BDE8324000F012BF31BD00007463705F1F
:102550007265637665643A20696E76616C696420A1
:1025600070636200A4000020A0000020A8000020EA
:10257000AC0000204C010020C4FD00082DE9FE4FF6
:10258000DFF8AC63DFF8A89870787168491C716057
:10259000401C70702AE0A84207D009F1280340F2DD
:1025A000715209F5417100F0C5F9EB683361BBF177
:1025B000000F0BD02A8B291D2B460292E88A00912E
:1025C00001906A6A3969284601F0F0F92F692846B6
:1025D000ED68FFF72DFD0021B8F1000F31700AD032
:1025E0006FF00C013846C047307820B100243569BF
:1025F00001E02C46ED68002D00F05C81287D38B9A3
:1026000009F1280340F2BE4209F5F27100F092F997
:10261000287D012807D109F1280340F2BF4209F5BE
:10262000047100F087F9287D0A2807D109F12803F1
:102630004FF4986209F50F7100F07CF97178A87F6A
:102640008842D6D0A977297D4FF00008C34605F10E
:10265000400705F1980A022906D1B8780628A8BFD4
:102660004FF0010880F2A180B9780C291BDA9AF8A2
:102670000100002847D0396B39B109F1280340F235
:10268000D44209F51B7100F055F9F86A38B909F11F
:10269000280340F2D54209F5287100F04BF99AF869
:1026A00002000C2802DB4FF0010871E09AF80100EB
:1026B0000FF6C00108449AF8001010F8010C81428E
:1026C000BCBF491C8AF800109AF8001081425FDBF9
:1026D000398C2846002904D101F00AFA002857D184
:1026E00007E000F0D6FC20B9284600F03FFE0028A5
:1026F0004ED09AF801008AF80080062848D8401C7D
:102700008AF8010044E0B5F93000010005D447F62D
:10271000FF7290421CBF401C2886B5F93010B7F9F3
:102720000000814234DB284600F0AEFF18B1386B60
:1027300070BBF96A61B3287D022813D0B8780C28E1
:1027400028BF0C20B5F93C20B5F93E100FF6140354
:10275000185601EBE201814047F6FF708142A8BFA5
:1027600001463980A5F830803A8C3889904238BFCC
:1027700002466B8E52085B0098B2824238BF1A46FE
:102780007A816A8E28463A81A7F82A8000F0B8FF3D
:10279000297D062909D1A87EC10606D57268286A56
:1027A000121A292A28BF08F10108697A08072BD5CF
:1027B000287D042818BF072826D173682A6ADFF805
:1027C00074064FF4FA719B1A7A6D8018B0FBF1F120
:1027D000994204D208F101084FF0010B14E09AF875
:1027E0000310DFF8540600FB01224FF4FA70B2FB2D
:1027F000F0F29A4208D2284601F052F920B99AF82C
:102800000310491C8AF80310786B60B1B7F9001007
:1028100073682A6A062011FB00F09B1A834224BFCA
:10282000284600F011FB297D08F10100032904D19D
:102830007268296A521A292A05E0092905D17268A5
:10284000296A521AF12A28BF8046B8F1000F15D024
:10285000D7F85080284600F0F3F9002C30693FF497
:102860009AAE854207D109F1280340F26D5209F56D
:10287000367100F05FF8E868E06098E62C46ED6895
:10288000207F617F401C2077C0B2884211D3002096
:1028900020773070D4F88C2042B1206921469047CF
:1028A000317800297FF4A2AE002802D1204600F042
:1028B0005DFDA0E6002475690FE0A84207D009F18C
:1028C000280340F2B35209F5627100F033F8E8686A
:1028D00070612846ED68FFF7ABFB2DB3287D0A2811
:1028E00007D009F1280340F2A15209F54C7100F01C
:1028F00021F87168286A091AF12912D3284600F0D4
:102900009FF9002C7069D8D0854207D109F12803BE
:1029100040F2AF5209F5587100F00CF8E868E06039
:10292000D7E72C46ED68D8E7BDE8F78F04530120C0
:1029300098000020484601F077BC70B5DFF8FC54E1
:102940006878401C68702C6924E0608BA177C1070F
:102950000AD540F002006083204600F007FD628B3C
:102960004FF6FC710A406283628B100706D54FF662
:10297000F7710A4062832046FFF746FCA06FE668C5
:1029800038B100212046297000F00EF82878002880
:10299000D9D134462CB16978A07F8842D5D1E4687A
:1029A000F8E770BD085201202DE9F04104000CD178
:1029B000DFF87C0440F2096200F1280300F56C7135
:1029C00001F032FC6FF00F0030E0D4F88450A76FB4
:1029D000002003462146002D7E7BA0673A4602D0A8
:1029E0002069A84701E000F055F801006FF00C08DD
:1029F00013D1B20619D5218D41F2D06081421CBF9E
:102A0000491C2185D4F884507DB12069002300221F
:102A10002146A847404508D101E0404501D1404644
:102A200004E0A7676FF0040000E00020BDE8F0813B
:102A300010B5002803E0046800F003F82000FAD184
:102A400010BD10B5040007D0606808B1FFF774F836
:102A500021460320FFF7FBBA10BD38B5050009D1A8
:102A6000DFF8CC0340F2826200F128030FF2EC3170
:102A700001F0DAFB032001F0BDFC040001D10020CD
:102A800032BD1022294602F0FDF86068FFF7BCF85D
:102A9000204632BD080010B5144608D1DFF8900377
:102AA0004FF4D36200F128030FF2CC310EE03CB1B9
:102AB0002189FFF713FD2046FFF73EF8002010BDE7
:102AC000002BFBD1BDE81040FFF71ABC01F0ACFBB6
:102AD0006FF00F0010BDF8B50446082818BF09288C
:102AE00009D0DFF84C0340F2DD6200F128030FF259
:102AF000A43101F099FBDFF8441300250022086996
:102B00000AE0067DA64206D14B68076ADB1BAB4292
:102B100024BF1D460246C0680028F2D12AB11046E3
:102B20000021BDE8F440FFF711BCF1BDF8B5064641
:102B300000F083F80400DFF8045358D12869002816
:102B40000AE0438BC468190705D54FF6F7721340A6
:102B50004383FFF759FB2000F3D10023002168696C
:102B600007E06C68026AA41A9C4224BF234601460F
:102B7000C0680028F5D111B10846FFF76DFC00F0E0
:102B80005CF8040033D10920FFF7A5FF00F055F8E9
:102B900004002CD10820FFF79EFF00F04EF804003F
:102BA00025D1802EA8BF7F2101DA31001CD04F1E15
:102BB000FFB200230021286910E0447DBC4207DBFE
:102BC0000BD1D5F804C0026AACEB02029A4204D3DE
:102BD0006B68016A27465B1A0146C0680028ECD181
:102BE00011B10846FFF738FC00F027F8044614B38B
:102BF0009C21204602F09EF866754FF4067604F19B
:102C0000480041F2D061062381836686FF22A4F842
:102C100040304FF0FF36E387012361852185E27262
:102C2000268603806A6822626D78854AA57741808E
:102C30008449C163C2642046F2BD012001F0DABBC1
:102C400038B5040008D17A4801B000F1280340F6F5
:102C500051020FF2502120E0207D00281CBF0A28DD
:102C6000012819D004F16805286918B1FEF764FF3E
:102C700000212961E86810B1204600F0E5F84FF026
:102C8000FF3121866868FFF7D3FEA868FFF7D0FE02
:102C900000226A60AA602A8031BDBDE8304001F0A0
:102CA000C3BA000070B50C000546614E07D106F1AD
:102CB000280340F683020FF2082100F04EF83DB9D8
:102CC00006F1280340F684020FF2102100F045F8C7
:102CD0002868A04203D1C068286006E0084620B1F9
:102CE000C168A142FAD1E168C1600020E0602046DD
:102CF000FFF7A6FF207D0A280DD0012829D0618B7F
:102D0000C80708D541F002012046618300F02EFB80
:102D1000217D01291DD0D4F86C0030B106F12803C3
:102D200040F6930275A100F018F8D4F8700030B1A5
:102D300006F1280340F6940276A100F00EF8D4F8CC
:102D4000740030B106F1280340F6960278A100F035
:102D500004F800212175E18270BD304601F064BAAB
:102D600080B540B9DFF8C80040F6AF0200F1280393
:102D700075A101F059FA31498A694868801888615B
:102D800002BD38B505460C4642B9294840F6C50291
:102D900000F1280300F58A6101F046FA002C1CBFFF
:102DA000A08C002807D02828CCBF2838002080B26B
:102DB000854288BF0546284632BD000070B5050033
:102DC0000C460AD11A484FF4106200F1280300F5AE
:102DD0008F6101F029FA00E0344644B12168286887
:102DE000E668814204BF2046FFF736FBF4E770BD7A
:102DF00070B504000D461CBF2268002A17D00F4E84
:102E00003169FFF7DBFFB1682046FFF7D7FF002DE0
:102E10001CBF286800280AD0F06806E00268216814
:102E20008A4204BF2B680360C0680028F6D170BDD9
:102E3000C4FD0008B84C0A00F824010098000020E6
:102E400000DD6D00952A000810B50446606F18B1CA
:102E5000FFF7EEFD0020606710BD00007463705F37
:102E60007365675F636F70793A20696E76616C692C
:102E700064207365670000007463705F7265637639
:102E80005F6E756C6C3A20696E76616C6964207057
:102E900063620000696E76616C69642073746174AA
:102EA000650000007463705F7063625F70757267C5
:102EB000653A20696E76616C696420706362000017
:102EC0007463705F7063625F72656D6F76653A20E0
:102ED000696E76616C696420706362007463705F10
:102EE0007063625F72656D6F76653A20696E7661B8
:102EF0006C6964207063626C69737400756E7365CD
:102F00006E74207365676D656E7473206C65616B9C
:102F1000696E6700756E61636B6564207365676DCC
:102F2000656E7473206C65616B696E6700000000EC
:102F30006F6F736571207365676D656E7473206C58
:102F400065616B696E6700007463705F6E657874AD
:102F50005F6973733A20696E76616C69642070638F
:102F600062000000010203040506070707070707C0
:102F70000700000003060C183060780020B1007ACA
:102F8000002818BF02F06BB8104600F0D5BF000053
:102F90002DE9F84F04000E4691469846DFF8B4B686
:102FA00005D10BF12803A32229A100F06FF836B94F
:102FB0000BF12803A4220BF1800100F067F8DDF883
:102FC00028A0032001F016FA0AF00107BF0005004F
:102FD00003D13046FEF7B0FD18E085F80AA00021C5
:102FE00029606E603089B84205DA0BF12803B022FF
:102FF0001FA100F04BF830891421C01B28813046F6
:10300000FEF767FD20B12846FFF71BFD00201DE0FD
:103010006968BF087F1D4868E860E08AFEF7E8FF3E
:10302000E9680880208BFEF7E3FFE96848804046A6
:10303000FEF7E4FFEA68506049EA0730FEF7D8FF80
:10304000EA6800219081E86841822846BDE8F28F55
:103050007463705F6372656174655F7365676D65E6
:103060006E743A20696E76616C69642070636200E8
:10307000702D3E746F745F6C656E203E3D206F70E6
:10308000746C656E000000000FF62C31584601F09C
:10309000CBB82DE9FE4F06008946DFF8B85507D1B9
:1030A00005F1280340F24B3205F51E7100F04EFC8D
:1030B000F46E002C3BD0B9F1000F0AD105F12803C2
:1030C00040F2533205F5277100F040FC6FF0050027
:1030D00092E02289914580F0888006F13207388895
:1030E000484507D205F1280340F25B320FF6E8218C
:1030F00000F02CFC208938B905F128034FF45772F1
:103100000FF6E42100F022FCA07A4FF42072019027
:103110008000258900F0040A3620A5EB0905ADB230
:103120000AEB050189B2FEF755FB5FEA000861D0A2
:1031300060682189D8F804C02A4603895B1A4B4489
:103140009BB20CEB0A01FEF734FEA8424FD1E168B6
:103150004FF0000B8889FEF74BFF00F03F0A5FEA53
:103160000A7044BF0AF0F70A4FF0080B5FEACA7012
:1031700044BF2AF0010A4BF0010BE16800F026FB86
:10318000019900EB09035A463046C9B20091414605
:10319000FFF7FEFE06002AD06068FEF72CFDB98E10
:1031A000081AB88660680189491B89B2FEF711FCCC
:1031B0002089451B50462581FEF71AFFE1688A8960
:1031C000104388816068FEF716FDB98E4018B886F6
:1031D0007068FEF710FDB98E4018B886226832601C
:1031E0002660306808B90021F986002004E04046D6
:1031F000FEF7A2FC4FF0FF30BDE8FE8F38B50400AB
:1032000009D1DFF8500440F2EB3200F128030FF649
:10321000E81101F009F8E56EB5B100E0054628684F
:103220000028FBD100F068FA10F0070F0CD1012044
:10323000FEF7DEFEEA68918908439081608B40F0DA
:1032400020006083002032BD20460121BDE83440CB
:103250002DE9F8438946002619F0030F0446DFF8EC
:10326000F48307D108F1280340F2124208F53071C7
:1032700000F0DFFB3CB908F1280340F213420FF6DF
:10328000941100F0D6FB5FEA897148BF01264FF424
:103290002072B1003620FEF79DFA050014D068892F
:1032A000B0EB860F07DA08F1280340F23A4208F53E
:1032B000467100F0BEFB0096E36D4A462946204663
:1032C000FFF766FE050006D1608B40F0800060834A
:1032D0004FF0FF3048E0287B10F0030F07D008F1D3
:1032E000280340F242420FF64C1100F0A2FB28895D
:1032F00038B108F1280340F2434208F5557100F057
:1033000098FB04F16C06316811B9356004E00146A0
:1033100008680028FBD10D6004F16607002019F051
:10332000030F788002D0E06D401CE0655FEAC97150
:1033300003D5608B40F0200060836868FEF75BFC7B
:1033400039884018388080B268B17068002804BF9E
:103350003168002907D108F1280340F2664208F5D8
:10336000607100F066FB0020BDE8F2832DE9F84FA4
:10337000040084B0DFF8DC9207D109F1280340F2A1
:10338000E1420FF6C80100F067F9237D012B07D158
:1033900009F1280340F2E44209F56A7100F05CF992
:1033A000DFF808080168A14200F0508104F14806E6
:1033B000308B3188884234BF03900391756A15B908
:1033C000A17E88072EE0221D21462046FFF7D6FD6C
:1033D0005FEA000807D0002C1CBF2068002807D136
:1033E00018F1040002D16FF0030030E100682060A2
:1033F00000F0EBF9616C2F89039B04F19802401AED
:10340000C019834215D2318B8B4204BFB06A0028A9
:1034100006D1517821B900250123157053709070A1
:10342000A27E910740F10D81204605B0BDE8F04F26
:1034300002E300205070B76A27B100E00746386801
:103440000028FBD100F0C1F9616C2B89039A401A66
:10345000C0188242C0F0F180EA689089FEF7C8FD8A
:10346000400707D509F1280340F237520FF2F471F3
:1034700000F0F2F8B06AA0B1628B12F0440F10D1E4
:10348000706A28B1016861B90389618E8B4208D2E4
:10349000B08B30B1F18B102903DA12F0A00F00F0DD
:1034A000CC80207D022806D01020FEF7A1FDE9681F
:1034B0008A89104388813CB909F1280340F2B95246
:1034C0000FF2B87100F0C8F8284600F0C8F80028DC
:1034D0005AD1606AFEF792FDE9688860608DFEF758
:1034E00087FDE968C881608D626A01F1140A1018CD
:1034F000E062A97AC8070BD5221D414640F2B450BC
:10350000FFF73FFC40F00170FEF778FD4AF8040B2E
:10351000B4F93000002844BF00212186606B30B927
:10352000DFF88C261368636300F04FF9A0636868C6
:10353000E968426843898A1A92B29B1A43810389D7
:1035400041609A1A02810020088201F11402A97ACE
:1035500001F0010102EB8100824507D009F1280347
:1035600040F21C620FF2347100F076F80620CDF8BC
:1035700008800190A17A221D0091E37A68682146B3
:1035800000F0C3FD010028D128687062217D022966
:1035900004D0628B4FF6FC700240628300F015F994
:1035A000824600F0A9F810F0030018BF0120298915
:1035B000B26851444018121A48BFB06000F09CF83D
:1035C00010F0030018BF0120298941182ED00022D5
:1035D0002A60B06A30B9B56226E0628B42F08002A0
:1035E000628334E000F0F1F8F968824600F0EEF80A
:1035F000BAEB000017D504F1700A01E0DAF800A078
:10360000DAF8000048B1C16800F0E0F8E9688346E4
:1036100000F0DCF8BBEB0000F0D4DAF80000286022
:10362000CAF8005005E03D602F4602E02846FFF74B
:1036300008FA756A002D7FF405AF706A08B9002199
:103640003184628B4FF67F7002406283002005B0A8
:10365000BDE8F08F90F80008484600F0E5BD10B5D1
:10366000040009D1DFF84C0540F29A5200F128031A
:1036700000F5747100F0D8FD6368987B012801D0D3
:10368000012010BD002010BD70B5040009D1DFF885
:10369000240540F2636200F1280300F21C4100F0AF
:1036A000C3FD256F2DB303E0FFF7D9FF08BB2D68DD
:1036B000286800282846F7D1FFF7D1FFC8B9E06E87
:1036C00000212860226F608BE266216740F4006071
:1036D000608300F07AF8064600F00EF810F0030060
:1036E00018BF0120298971184018E0640020606328
:1036F00070BD6FF0050070BDE8688089FEF778BC8A
:1037000010B5040009D1DFF8AC044FF4D36200F126
:10371000280300F5886100F087FD94F84200FF2837
:103720001CBF401C84F842002046BDE810401DE646
:1037300010B5040009D1DFF87C0440F2AD6200F15D
:1037400028030FF26C5100F06FFD2046FFF79CFF3D
:1037500018B92046BDE81040D2E710BDF8B5050005
:1037600009D1DFF8500440F2C16200F128030FF2E2
:103770005C5100F059FD05F13406F46B1CB1204694
:10378000FFF76DFF10B16FF00500F2BD20686C35DA
:10379000F06300E02D68286840B1C16800F016F8B9
:1037A000E168074600F012F83F1AF3D42968216057
:1037B0002C60206808B90022B286B07BFF281CBFAD
:1037C000401CB07300203060F2BDE9684868FEF725
:1037D00015BC38B5040009D1DFF8D80340F2F9620E
:1037E00000F128030FF2FC4100F01EFD04F1480532
:1037F000AA6AEAB1A17E48071AD42046FFF7AEFFB5
:10380000B0B92A8B2888904238BF0246638E52088E
:10381000B2EB430F38BF5A0003EB4303002113FA06
:1038200082F32B80608B40F0040060836A802186E5
:1038300031BD2DE9F84F0F461146C91981461431A3
:1038400098464FF4207289B22220FDF7C3FF04008E
:1038500031D0618907F11400814208DAD54840F27D
:10386000247200F1280300F2644100F0DDFC0A98A4
:10387000DDF834A00C9EDDF82CB065683F06FEF73D
:10388000B7FBBF0E7F1D28805846FEF7B1FB68804E
:103890004846C5F8048046EA0736FEF7AFFBA86045
:1038A000B0B2FEF7A5FBA8815046FEF7A1FBE88168
:1038B0000021298269822046BDE8F28FF8B5040014
:1038C00084B00D4616461F4608D1BA4840F24272EF
:1038D00000F1280300F2944100F0A6FC638D102251
:1038E000029232460393218B3B460191E08A29469E
:1038F0000090606AFFF79DFF18B1618D626A5118F0
:10390000E16205B0F0BD70B50C001646A94D07D1B7
:1039100005F1280340F2567205F2BC4100F016F89A
:10392000606806F0010600F11402143000EB860115
:103930008A420AD005F12803284640F275720FF238
:103940005C31BDE8704000F06FBC70BD284600F0EF
:103950006BBCFEB50D00044616461F4608D19548BF
:1039600040F2877200F1280300F2E44100F05CFCB1
:103970003A4631462046FFF701FB10B96FF00304C9
:103980000FE0002C19BFE37AA17AFF2300210290F7
:10399000062001903A4600913146284600F0B5FBDA
:1039A00004462846FEF7C8F82046FEBD2DE9F84338
:1039B0001C0084B0074689461646DFF8F88107D117
:1039C00008F1280340F2C4720FF2383100F031F8E8
:1039D0000C9D3DB908F1280340F2C5720FF2403149
:1039E00000F027F84846FEF709FB4DF216011423B4
:1039F0000391BDF83820BDF83410029301920346BC
:103A00000091002200213046FFF713FF06000DD081
:103A10000023002231463846FFF775FF2B46224629
:103A20003146384605B0BDE8F04392E705B0BDE841
:103A3000F083404600F0F8BB38B5040007D15D487C
:103A400040F2EA7200F12803BCA100F0EDFB206D0A
:103A5000FEF7D4FA0346002200212046FFF72EFF8E
:103A6000050006D1608B40F0030060836FF0010019
:103A700032BD0023002229462046FFF744FF231DC4
:103A8000224629462046FFF764FF628B030012BFDF
:103A900042F003024FF6FC710A40628332BD00001F
:103AA00038B5050007D1434840F6240200F1280349
:103AB000AAA100F0B9FB286D401EFEF79FFA03464D
:103AC000002200212846FFF7F9FE040002D14FF042
:103AD000FF3032BD0023002221462846FFF713FFA6
:103AE0002B1D2A462146284601B0BDE8304030E76C
:103AF0002DE9F041040008D12E4840F64F0200F1B4
:103B0000280300F5A26100F08FFBE56E0DB90020DF
:103B100049E094F89A00FF281CBF401C84F89A00E2
:103B2000FFF7EAFDC10704D52889461EB641F60F06
:103B300000E00026E86886F0010200214368204684
:103B4000FFF7BCFE5FEA000808BF4FF0FF302AD045
:103B5000D8F804704EB11120FEF74AFABA894CF237
:103B6000FF010A401043B88109E0686829890122F1
:103B700003895B1A9BB207F11401FEF71AF9FFF7EC
:103B800024FE216D401C091A48BF20650023002235
:103B900041462046FFF7B7FE231D224641462046F8
:103BA000BDE8F041D5E6BDE8F081000008520120F3
:103BB0009C00002090F800087463705F777269744D
:103BC000653A2076616C6964207175657565206C55
:103BD000656E67746800000073706C6974203C3D0A
:103BE000206D737300000000757365672D3E6C6572
:103BF0006E203E20300000007463705F73656E6459
:103C00005F66696E3A20696E76616C6964207063E4
:103C1000620000007463705F656E71756575655F45
:103C2000666C6167733A20696E76616C69642070B6
:103C3000636200007365672D3E7463706864722070
:103C40006E6F7420616C69676E6564007463705F89
:103C50006F75747075743A20696E76616C69642052
:103C600070636200525354206E6F742065787065E3
:103C70006374656420686572652100007463705F19
:103C80006F75747075745F7365676D656E743A20D7
:103C9000696E76616C696420706362006F7074692C
:103CA0006F6E73206E6F742066696C6C65640000C3
:103CB0007463705F7265786D69745F72746F3A20B7
:103CC000696E76616C696420706362007463705F12
:103CD0007265786D69743A20696E76616C696420EA
:103CE000706362007463705F7265786D69745F669B
:103CF0006173743A20696E76616C696420706362E6
:103D0000000000007463705F7273743A20696E760D
:103D1000616C6964206C6F63616C5F6970000000A6
:103D20007463705F7273743A20696E76616C696453
:103D30002072656D6F74655F697000007463705FF9
:103D400073656E645F656D7074795F61636B3A2053
:103D5000696E76616C696420706362007463705F81
:103D60006B656570616C6976653A20696E76616C29
:103D7000696420706362000080B5FEF777F9614BDB
:103D80001968002902BF604A1068002805D0002287
:103D90005E49FA20BDE808406FE05D48016001BD62
:103DA0005B4A1068002800D0704710B5554B196861
:103DB000002902BF544C2068002807D00123534932
:103DC00013600022FA20BDE8104056E010BD70B527
:103DD00004460D4616460A2000F00CFB48B94D4833
:103DE000BE2200F1680300F12801BDE8704000F038
:103DF0001BBA002101604460474C8560C6602268A0
:103E000032B1436851685B1AB3F1004F03D30260CB
:103E1000206070BD0A46116829B144684B68E41AF5
:103E2000B4F1004FF6D30160106070BD38B50446A0
:103E30006068804701F0C6FA374925684B68374902
:103E4000EB181A1AB2F1004F22462CBF2818184658
:103E5000BDE83840BBE7000038B5304D30A404F170
:103E6000080229464FF47A7000F007F804F11002B6
:103E700029464FF47A70BDE8384070B50646B6F171
:103E8000804F0C46154608D3224840F2291200F113
:103E9000680300F1C40100F0C7F901F093FA2A4663
:103EA00021463018BDE8704091E7F8B501F08AFA74
:103EB0000746194C10E048683B1AB3F1004F0ED288
:103EC0000A6822608E68CD6860600A2000F0D0FA2F
:103ED00030001CBF2846B04721680029EBD1F1BD56
:103EE00010B50D4C206810B94FF0FF3010BD01F037
:103EF00069FA22685168081AB0F1004F28BF002003
:103F000010BD0000A8000020AC000020793D000892
:103F1000F852012034100108B05201202D3E000853
:103F2000FA0000006D200008E8030000A956000810
:103F3000E80300004D7C000870B5DFF8C812046883
:103F40000968A1B191F82D3003F00502052AF7D1D7
:103F50004A68002AF4D08E6806EA04053240954289
:103F600016D09B07ECD4CA689442E9D110E0A64968
:103F7000096859B191F82D3003F00503052B05D1DF
:103F80004A68002A1CBF00787F2801D1002070BD3C
:103F9000084670BD80B5014691F82D20D0070AD59E
:103FA0004A6842B199484069904202D0FDF7B6FB99
:103FB00008B1012002BD002002BD2DE9F8430546ED
:103FC00089466F683978080904284BD1880000F0C9
:103FD0003C087888FEF70CF829890446884203D209
:103FE00021462846FDF7F5FC6A8942453ADB2889D7
:103FF000A04237D3B8F1140F34DB3869834E7061B7
:10400000F8683061307D00F0F000E02808D199F8C0
:104010002D20D10702D5D9F8040028B9002415E0D5
:104020004846FFF7B7FF08B14C460FE0307D00244B
:104030007F280BD073490C6800E0246834B14C45EC
:10404000FBD02046FFF7A6FF0028F6D0306949468E
:10405000FDF764FB30B9307C00F0F000E02818BFB9
:10406000002C03D12846FDF767FD09E0F9884FF6DB
:104070003F70014207D0284601F0F4FB050001D152
:10408000002040E06F6834604146C6F80490B76095
:104090003878800000F03C00B0812846FDF71BFD19
:1040A000787A01280DD0062806D011280ED149466D
:1040B000284601F044FF1EE049462846FCF706F971
:1040C00019E04946284602F0F1FA14E070692146E9
:1040D000FDF724FB60B9307D00F0F000E02807D048
:1040E00041462846FDF726FD0221284602F07EFBC8
:1040F0002846FDF721FD0023002033607360B06087
:10410000B08133617061BDE8F2833EB5089D0C4615
:1041100022B100291ABF096800292C1D02959DF8BB
:1041200018109DF81C5000912146019500F002F8EE
:104130003EBD00002DE9F84306468846B07B144694
:104140001F46DFF8CC90012800F0088009F1280311
:104150004FF4557231A1484600F066F8ACB3142113
:104160003046FDF7B6FC98BB70897568142808D2F4
:1041700009F1280340F2893209F18401484600F030
:1041800053F8099808992F72224F687222682A61A1
:104190004520287069703089FDF72AFF688000206B
:1041A000E8803888FDF724FFA8803888401CB8F1E3
:1041B000000F388003D1184B1A68EA6002E0D8F883
:1041C0000010E9600020688109E07189142902DA91
:1041D0006FF0010014E071686C46086900900A9B5A
:1041E000988C40B13189884205D222461946304622
:1041F00001F016FD04E018465B69224631469847F7
:10420000BDE8F283A0520120A45201206452012093
:10421000601401080053012078190108702D3E72C6
:104220006566203D3D2031000EB41EB5024605A84E
:1042300001900024009401AB0121044878440C3023
:1042400002F029FB03B010BC5DF810FB11D6000092
:1042500010B5044608460022042103F01FFC20602C
:1042600000B940E0002010BD02B500680023002224
:10427000694603F043FC1BE0F8B507460D461446BB
:1042800003F0A0FA0646386844B1234600222946C6
:1042900003F05CFC40B14FF0FF30F2BD4FF0FF3354
:1042A0000022294603F052FC03F08CFA801BF2BD79
:1042B00008B14FF0FF3002BDFFE7006800B10120F8
:1042C0007047000080B5002003F0DEFA1E49086048
:1042D00001BD10B50446002003F0D6FA206000B9F5
:1042E00001E0002010BD4FF0FF3010BD00684FF01E
:1042F000FF3103F0F6BA006803F017BB2DE9F8426E
:1043000089B006460D4691461C46109F68462421FA
:1043100000F010FD00966A46059449460697284627
:1043200003F058FA0AB0BDE8F08280B5064A4FF0B3
:10433000FF31106803F0D5FA012002BD0249086878
:1043400003F0F3BA00000000F452012070B5816858
:10435000002200230A604268D21C9208920005E005
:104360000E685B1C16600A6005882A444488A342D4
:10437000F6DB70BD38B50025484CA8B26D1C54F86A
:104380002000FFF7E3FFA9B20D29F6D331BD38B500
:104390000446FFF7CAFF0546A06804689CB121687F
:1043A000016014F0030009D03C4840F2191200F1FA
:1043B000800300F15C013430FFF736FF2846FFF739
:1043C000BDFF204632BD2846FFF7B8FF002032BDB2
:1043D00080B558B9DFF8C4004FF49E7200F1800335
:1043E0002FA13430FFF720FF002002BDBDE80240BE
:1043F000CDE700000D2810B5284C0ADB04F180033E
:1044000040F257122BA104F13400FFF70DFF0020FA
:1044100010BD54F82000BDE81040B8E738B5044698
:104420000D4615F0030009D0DFF8700040F26D1260
:1044300000F1800327A13430FFF7F6FEFFF775FF88
:10444000A268116829601560BDE83240FFF776BFA9
:1044500040B9124840F2951200F1800310A13430A7
:10446000FFF7E2BE002918BFFFF7D8BF7047000072
:104470000D2810B5094C0ADB04F1800304F1340067
:104480004FF4D5721BA1BDE81040FFF7CDBE21B19E
:1044900054F82000BDE81040C0E710BD0812010824
:1044A000696E76616C696420706F6F6C20646573EF
:1044B000630000006D656D705F6D616C6C6F633AD9
:1044C0002074797065203C204D454D505F4D41581A
:1044D000000000006D656D705F667265653A206D65
:1044E000656D2070726F7065726C7920616C6967A0
:1044F0006E6564006D656D705F667265653A207407
:10450000797065203C204D454D505F4D415800006D
:1045100038B5744D00F0B1F8296821B16868884752
:1045200001E0FFF7C2FCFFF7DBFC044614F1010FCA
:1045300007D100F09EF8002200F03DF800F09DF851
:104540000CE0002CEDD000F094F8224600F033F897
:10455000044600F092F814F1010FE2D0DDF80020DB
:1045600065A161482AB900F128039122FFF75CFE9A
:10457000D9E7144622787AB1022A01D004D316E092
:10458000A06863689847CEE7A068616888472146BD
:104590000820FFF76DFFC6E7A1686068E2689047F2
:1045A00010B16068FDF7C8FA21460920F1E700F173
:1045B0002803CF22DAE7694605F10800FFF75CBE61
:1045C0002DE9F0410546DFF81C810E46174608F13B
:1045D0000800FFF771FE18B94348FC2200F044F8C8
:1045E0000920FFF707FF04000ED0002021462070AD
:1045F00008F108006560A660E760FFF735FE28B1A6
:1046000021460920FFF734FF4FF0FF30BDE8F0816D
:1046100091F82D3013F0180F14BF344A344ACFE705
:10462000F8B505462F4E0F4606F10800FFF744FE89
:1046300020B92D4840F25D1200F016F80820FFF76F
:10464000D9FE04000DD001202146207006F108009B
:104650006560A760FFF708FE28B121460820FFF734
:1046600007FF4FF0FF30F2BD00F128032AA1FFF74A
:10467000DBBD05F10C00FFF73EBE05F10C00FFF7B6
:1046800035BE00007CB506460C4603F09DFA154D7C
:1046900006212E6005F108006C60134CFFF7D8FD71
:1046A00040B104F1280340F2612204F18001204668
:1046B000FFF7BAFD05F10C00FFF70BFE40B104F166
:1046C000280340F2652204F1A4012046FFF7ACFD67
:1046D00018204FF4006300900022064912A0FFF753
:1046E0000DFE73BD8C520120E01201083DBB000895
:1046F000BB3F00081145000874637069705F7468FF
:10470000726561643A20696E76616C6964206D65DA
:104710007373616765000000496E76616C6964209F
:104720006D626F780000000074637069705F746878
:10473000726561640000000010B5DFF84004DFF826
:104740004014016047F6E85200230A804B80DFF8EE
:1047500034440B71012344602371228062808160A4
:104760000C30FFF7B6FD58B1DFF81C0440F21F22F1
:1047700000F128030FF26C41BDE81040FFF754BD73
:1047800010BD002800D1704710F003012DE9F04260
:10479000DFF8F46306D006F1280340F2732206F135
:1047A000A80110E0DFF8D453A0F108042A6894426D
:1047B00022BF69680C30814208D206F1280340F21A
:1047C0007F220FF23C4100F09AF892E005F10C00D4
:1047D000FFF78CFD207930B906F128034FF42372DE
:1047E00006F1CC017FE022882868678847F6E959FE
:1047F000211A89B283184A4500EB070E38BF4F458E
:104800006BD28F421CBFBEF800208A4265D16A6815
:1048100093421CBF5B888B425FD100212171A96844
:104820008C4238BFAC60844207D206F1280340F2C4
:10483000DF120FF2603100F062F86868844207D33B
:1048400006F128034FF4F0720FF2603100F057F8D0
:10485000207938B106F1280340F2E1120FF26831F5
:1048600000F04DF82088484507D306F128034FF49F
:10487000F27206F17C0100F042F82288296847F6BE
:10488000E8538E18B44210D0307970B96F68BE42C8
:104890000BD0A868B04208BFAC6037882780368844
:1048A0009E4202D0621A881C825366880E44A64239
:1048B0000DD0307958B9AF68A74208BFAE602088E4
:1048C00030802088984202D0721A891C0A5205F161
:1048D0000C00BDE8F042FFF70EBD06F1280340F2E0
:1048E000952206F1F40100F00AF805F10C00FFF73B
:1048F00002FDFFF71AFDBDE8F042FFF71FBD30468D
:10490000FFF792BC2DE9F84FCA1C4FF6FC75154015
:104910000C2D32BF0C2547F6E952954233D28D4219
:1049200031DB8146954E3068DFF85CB2814502D3B9
:104930007768B94507D30BF1280340F2D22200BFB4
:10494000B6A100F075F83768B94502D370688145A3
:1049500004D3FFF7EAFCFFF7F1FC66E039F8081C26
:10496000A9F10800C71BBFB2C91BA1F108001FFABB
:1049700080F8A84580F209800BF128034FF43972C2
:10498000ACA100F055F8002050E045454DD006F1AF
:104990000C0047F6E85AFFF7A9FC39F8082C3368F1
:1049A000ACA19C182079C0B9524505D10BF1280360
:1049B00040F2F52200F03CF8ED1931680835B36893
:1049C000ADB220884A19A34208BFB26000240B1D73
:1049D0005C551080881C47531CE005F1140080458D
:1049E0001FD3ED190835524505D10BF1280340F2CC
:1049F000163200F01DF83168A8B2B3680A189A425E
:104A000038BFB26000240B1D1C5439F8083C1380D9
:104A10008B1C1F5229F8085C108850451CBF891C4C
:104A20000D5206F10C00FFF766FC4846BDE8F28F18
:104A30005846FFF7F9BB000001002DE9F0470DD003
:104A4000C11C4FF6FC740C4047F6E85A0C2C38BFDA
:104A50000C2401D3544501D8844202DA0020BDE879
:104A6000F087464F07F10C00FFF740FC3968BD683E
:104A70006D1AADB200E01588AAEB0400854277D22A
:104A80004A19914699F804000028F4D1B9F80000B9
:104A9000401B0838A042EED304F114018842DFF82D
:104AA000E88021D366190836B6B2564540F0078033
:104AB00008F1280340F2873266A100F067F83868F1
:104AC0000022011D8A55B9F800308119821C0B8023
:104AD00095530122A9F8006089F8042009885145FE
:104AE00005D0801C465202E0012189F80410BA6802
:104AF000914516D1796802E012883868024410792D
:104B0000002818BF8A42F7D1BA608A4218BF00282D
:104B100000F0078008F1280340F2B53252A100F0FE
:104B200035F807F10C004C44FFF7E5FB78680834D2
:104B3000A04207D208F1280340F2BA3208F5947176
:104B400000F024F819F003000FD008F128034FF407
:104B50006F7208F5AC7100F019F808F1280340F203
:104B6000BE3208F5C47100F011F809F1080076E7CB
:104B700007F10C00FFF7BFFB70E700007C5201203B
:104B800000020030E87F00309C0901084046FFF732
:104B90004BBB0000706C75675F686F6C65733A2083
:104BA0006D656D203E3D2072616D0000706C756713
:104BB0005F686F6C65733A206D656D203C20726193
:104BC0006D5F656E64000000706C75675F686F6C88
:104BD00065733A206D656D2D3E75736564203D3DAE
:104BE000203000006661696C656420746F20637218
:104BF00065617465206D656D5F6D75746578000025
:104C00006D656D5F667265653A20696C6C6567619C
:104C10006C206D656D6F7279000000006D656D5FD1
:104C20007472696D3A206C6567616C206D656D6F9B
:104C3000727900006D656D5F7472696D2063616EDD
:104C4000206F6E6C7920736872696E6B206D656D74
:104C50006F727900696E76616C6964206E65787434
:104C600020707472000000006D656D5F6D616C6C8A
:104C70006F633A20216C667265652D3E75736564BD
:104C8000000000004AB1000011F8013B521E00F87C
:104C9000013B1CBF11F8013BF8E77047F0B5214913
:104CA000214AD1F8807053681078204D204E6FF063
:104CB000004418BB082006FB03532746B3FBF7F755
:104CC000401E04FB1733F6D10F46102006FB03539A
:104CD000A646B3FBFEFE04FB1E333B60A44657F81A
:104CE000043B06FB0353B3FBFCFC04FB1C33401EDC
:104CF00047F8043BEAD1CF6F0120107006FB035345
:104D0000254607F01F07B3FBF5F551F8270004FB14
:104D1000153341F82730C1F88000536020F040403F
:104D2000F0BD0000484F0120BC0000205FF36E3C46
:104D30000D661900002202F05FBF000070472DE9E8
:104D4000F0470500DFF8388306D108F1280340F268
:104D500027120FF2383108E0099C200009D108F130
:104D600028034FF4947208F180014046FFF75CFA83
:104D70002EE0DFF8100301B9014602B9024603B97B
:104D800003460A980026089F4FF0000CC5F804C09F
:104D9000B646AE600FF2C12CAE8405F12D06C5F803
:104DA0000CE00FF2043AC5F814C086F800E02F6258
:104DB000DFF8D472C5F81CE097F800C086F803C08D
:104DC0002861284600F092F82846A047002803D022
:104DD000002034E0491CF170F178FF2904BF002065
:104DE000F0704FF000097C681DE0AC4207D108F17B
:104DF000280340F28B1251464046FFF715FA09F19D
:104E00000109B9F5807F08DB08F1280340F28D1213
:104E100008F1A4014046FFF707FAF17894F8300052
:104E20008842D7D02468002CDFD1F078FE280CBF50
:104E30000020401C38707868286028467D60BDE8F6
:104E4000F08738B505460C46FDF7D2FF21462846C7
:104E5000BDE8344001F01BBB2DE9FC410C000646C7
:104E600015460FF25828DFF8187207D107F128030A
:104E700040F2CB1241463846FFF7D6F93DB907F16B
:104E800028034FF4E67241463846FFF7CDF9226811
:104E900071688A4211D0009272682A606946284679
:104EA000FFF7CFFF002C0CBF0020206870600121AD
:104EB000304600F05FF8012000E00020BDE8F681F8
:104EC0000B688268934204D001B9002383600120FB
:104ED0007047002070470B68C268934204D001B944
:104EE0000023C36001207047002070472DE9FC417A
:104EF00080460C0015461E46624808BF044605B9A8
:104F0000054606B90646002C1CBF2368002B06D1B7
:104F10006A46214640460127FFF79EFF00E0002732
:104F2000002229464046FFF7CBFF0022314640468B
:104F3000FFF7D1FF27B96A4621464046FFF78CFFAD
:104F4000BDE8F381504988607047000038B94C488B
:104F50004FF4547200F128035CA1FFF765B990F893
:104F60002D20D10705D442F00102032180F82D2025
:104F700000E0704738B504000D4608D1404840F2C3
:104F80006D3200F1280300F1F801FFF74DF994F8B4
:104F90002D1001F00502052A0BD1EB0709D5606839
:104FA00038B1090705D5211D2046BDE8344003F07E
:104FB000C7B931BD38B9324840F29B3200F12803FD
:104FC00049A1FFF731B990F82D20D10707D502F09C
:104FD000FE0280F82D20120748BF02F017BF70476D
:104FE00038B504000BD1264801B000F128034FF476
:104FF000787200F58E71BDE83040FFF715B904F105
:105000001C05697C48070CD441F0040120466974F2
:105010000321FFF7AFFF296819B12046BDE83440EE
:10502000084731BD40B9164840F2064200F1280356
:1050300000F5A071FFF7F8B800F11C03597C4A078E
:1050400006D501F0FB0159741968002918BF0847FB
:10505000704700B1C16170476FF00B0070470200EC
:105060000BD00948406800E0006830B190F830107B
:10507000531EDBB28B42F7D170470020704700000F
:10508000480B0108781901089C5201206E6574696B
:10509000665F6164643A20696E76616C6964206E53
:1050A00065746966000000006E6574696620616C55
:1050B000726561647920616464656400696E76611B
:1050C0006C696420706F696E746572006E657469D6
:1050D000665F7365745F75703A20696E76616C699E
:1050E00064206E65746966006E657469665F7365D9
:1050F000745F646F776E3A20696E76616C696420C4
:105100006E65746966000000DFF83C15C86B02F03C
:1051100096BCDFF83415086C02F091BC80B503F042
:105120001FFE010602D5DFF8200546E101BD70B57E
:105130008CB00D4668463021FFF7FCFD30216846F3
:10514000FFF7F8FD002428460EE00C214368614378
:1051500069440B6042894A600CB141F8041C006844
:1051600008B900228A60641C20B1042CEDD36FF0D2
:105170000B001FE02989DFF8D044C4F80CD0284682
:10518000A160DFF8C864A563FCF73EFD211D304631
:1051900003F0F7FA50B9206C4FF0FF3102F02AFC0F
:1051A0000028F8D1304603F0C5FB02E02846FCF7A2
:1051B000C3FC00200CB070BD7CB50646DFF88C4403
:1051C000DFF88454E86B4FF0FF3102F013FC002845
:1051D000F8D12878002100910028F3D169462046B3
:1051E00003F0FCFA00980028ECD032693146904771
:1051F0000028EED00098FCF79FFCEAE72DE9F84381
:105200000400A4B009D1DFF848044FF4FC7200F1A7
:1052100028030FF27841FFF707F804F126057323FE
:105220002B727421DFF82C046972DFF82C24A06142
:10523000626164210BA8DFF81464FFF77BFDDFF8DF
:105240001C1480233160E1218DF801304FF4C060DF
:105250008DF802104FF0000901237061DFF800247F
:105260004FF040518DF8009030468DF80390DFF8F4
:10527000D873ADF80490C6F804D03372F26031618F
:1052800003F0ACF880463821381D04F067F821207F
:105290004FF4403178600FF20440B961C7F81490C0
:1052A000FFF754F80621A97173681878287072689E
:1052B0005178697070688278AA707168C878E870EF
:1052C000726811792971706840F2DC5142796A7113
:1052D0000022A184E879002140F00A00E871012051
:1052E00002F042FBF86300220021012002F03CFBA7
:1052F0003864242102A8FFF71DFD4FF4AF7230215E
:105300000FF280330792089102AA02932146DFF838
:10531000540302F05FFA07F1640107F1440004F05E
:1053200020F807F1440004F035F8B8F1000F30D14F
:1053300007F1440004F090F8012806DC2046FFF74E
:1053400071FE2046FFF736FE25E003284FF480412A
:105350004FF4005706D006D3052801D004D302E04D
:10536000002701E0002789460BA9304603F0E3FB44
:1053700011970BA9CDF84090304603F0ACFC3046B5
:1053800003F05EF92046FFF7E1FD2046FFF728FE17
:1053900001E004F0FBFD002025B0BDE8F0830146EC
:1053A0000FF2F82080B5FFF753F8A7480278012ADA
:1053B00002D10021017000E001BDC06BBDE80240D8
:1053C00002F03DBB04F0F4BD10B586B004461421D4
:1053D0006846FFF7AFFC2468A04B9C4277D1A248F7
:1053E000026842F400420260016801F40041059144
:1053F000059B026842F480320260016801F480314A
:105400000591059B026842F400320260016801F4D4
:1054100000310591059B826842F004028260816838
:1054200001F004010591059A836843F0010383604C
:10543000816801F001010591059B8268322342F0E9
:105440000202826081680222884801F0020105910F
:10545000059C0021019202910B21032204910093EB
:1054600069460392824C04F0A9FD00218222029138
:10547000022303910B210491694600922046019377
:1054800004F09CFD042102220091032101920023DB
:1054900003910B22029369460492204604F08EFD8C
:1054A0004FF460520B210092022400230491032246
:1054B00001940293694603926E4804F07FFD002236
:1054C00005213D2004F099FE3D2004F0B5FE06B014
:1054D00010BD80B55D4803F00AFC002002BD00202D
:1054E000704713460A460146584880B503F0C9FA8A
:1054F00006E013460A460146544880B503F0EEFA2A
:1055000008B14FF0FF3002BD04F052BD00000000B2
:105510002DE9F04F99B0054664216846FFF70AFC73
:105520000024002600274FF4804B4FF40058DFF88A
:105530001C91DFF814A11AE0B4B102E000270026A4
:1055400001246946484603F0F6FA0697694605962F
:10555000484603F0C0FB484603F072F82846FFF7C0
:10556000F5FC2846FFF73CFD642002F080F90AF1C3
:10557000440003F071FF95F82D2051070BD5022848
:10558000F2DA484603F0BAF82846FFF713FD28463A
:10559000FFF748FDE8E70228E6DB801E0328CBD8AA
:1055A000DFE800F004070903C6E7C7E747465E46A1
:1055B000C6E70027FBE74746C1E700001CB50446E5
:1055C00036A0FEF705FF88B12B4A00F120010261E9
:1055D00000F1200321604FF4C0640093034601945E
:1055E000412200210020FCF7D8F913BD0121164803
:1055F00001700022226013BDF0B51C46A2F1200507
:1056000000276C812F602F810368002B0EBF05607F
:105610000E6835600D6002E0018961180181006843
:105620000028F9D1012C0EDB02F01F000419BFF392
:105630004F8F12490A602032203C012CFADABFF366
:105640004F8FBFF36F8FF0BD000000205449012041
:10565000C81501082F510008D77F000800800240BC
:1056600000010030B9510008D8440258000802581F
:1056700000000258000402589F5300085CEF00E04D
:10568000FCF75ABA45746849660000006E65746993
:105690006620213D204E554C4C00000020060C0099
:1056A00034D90020BC52012038B5DFF8301700256E
:1056B0004C6803E0401E2546E0770C464CB1E07F85
:1056C00021680028F6D120460C46294600F002F851
:1056D000F4E731BD2DE9F84F07460D460026BD42DF
:1056E000DFF8FC9606D109F12803AB220FF2007116
:1056F00000F05EF8002D1CBF2A68BA4206D009F1FE
:105700002803AD220FF2F46100F052F87C680FF22A
:10571000007861688888D0B9086814227860606869
:1057200007F10801FFF7AEFA0121204601F061F808
:105730002046FCF760FA0646B6F5803F04DB09F127
:105740002803BC2200F033F82046FCF7F5F97C680A
:1057500015E06068A34604685846FCF74CFA824698
:105760000AEB0600B0F5803F04DB09F12803CC22E8
:1057700000F01DF856445846B6B2FCF7DDF9002C8F
:10578000E7D12946384600F04EF8DFF85046208829
:10579000B04206DA09F12803D22209F1880100F0AB
:1057A00007F82088801B20803046BDE8F28F4146F4
:1057B0004846FEF739BD2DE9F843044688460023E4
:1057C000DFF8185669680020002700268446002963
:1057D0001BE0D4F80CE04A69724502BF2269D1F897
:1057E0001890914502BFB1F80CE0A288964508D008
:1057F000761C20B190F81FE0CA7F964501D3084679
:10580000BC460A6802B10F461100E2D120B11F4622
:105810006146FFF75FFFC319434501DA012ED1DC72
:105820001846BDE8F28370B505460C46DFF8AC05B6
:105830004168A94202D12A6842600CE04CB9DFF805
:10584000A00540F2451200F128030FF2E451FEF7E3
:10585000EBFC2E68266029460420BDE87040FEF768
:1058600007BE00002DE9F04F85B08246DAF80450FB
:105870002878800000F03C00142859D1E888FCF713
:10588000B7FBC7006888FCF7B3FB2978890001F0F3
:105890003C0188424CDB441A5046FCF7ACF9804688
:1058A000DFF83895B9F8000040440A280ADD41467F
:1058B0002846FFF780FF00283AD0B9F8000040449E
:1058C0000A2835DCD9F804600CE0E8687169814287
:1058D00002BF2969B069884202BFB189AA88914292
:1058E00027D03668002EF0D10420FEF783FD060095
:1058F0000CD141462846FFF75EFF404504DB0420FB
:10590000FEF778FD060001D1002610E02021304688
:10591000FFF710FA0F211422F177D9F80400306054
:105920002946C9F8046006F10800FFF7ABF986B90B
:1059300049E1E888FCF75CFBC0040AD1F089FCF778
:1059400057FBC00405D01422294606F10800FFF7D2
:1059500099F9ED88E419ADF80440DFF884B42D0618
:105960006D0F05F0010585F001054DB1BDF804008E
:10597000BFB2B84215DB4FF6EC72904280F208815C
:105980000024012304940393DAF804200092508841
:10599000FCF72EFB074600980478A40004F03C04B2
:1059A000A742C0F2F580C088FCF722FBDAF8042099
:1059B000C100009200237F183F1B964688B2CEF8A4
:1059C0000030009A9180009BDF80BFB2874236D3BF
:1059D0007068049C0290039F0CE000F0D980D3888B
:1059E00088B298422BD3002C1EBFE0887045002758
:1059F0001068144640B342688BB2B2F804E07345B5
:105A0000EBD200990860B4B1009BE088998881428C
:105A100022BF9288D888824211D3C4F800A000998E
:105A2000E2888888824218BF00276DBBB07FC1071B
:105A30002AD4002756E09088009AD1888842C0F086
:105A4000A780C6F804A0F0E794B1E28889B2914239
:105A500007D20BF128034FF4DB720FF2F03100F0A4
:105A6000C3F9C4F800A00098E18882889142DAE77F
:105A700002980028E5D00BF1280340F2BF120BF189
:105A8000AC0100F0B1F9DCE74FB3716831B34A689B
:105A9000908818BB009A13461868144606E04468BC
:105AA000D088A288904219D1224620680028F6D1D9
:105AB0004968A14207D10BF1280340F2E1120FF22D
:105AC000AC3100F091F9206848B10BF1280340F2A5
:105AD000E3120BF1E40100F087F900E0002717F171
